:020000040800F2
:10000000902A0020B10500082702000829020008F4
:100010002D0200083102000835020008000000002F
:10002000000000000000000000000000390200088D
:100030003B02000800000000A7B2000839140008C5
:10004000CB050008CB050008CB050008CB05000850
:10005000CB050008CB050008CB050008CB05000840
:10006000CB050008CB050008CB050008CB05000830
:10007000CB050008CB050008CB050008CB05000820
:10008000CB050008CB050008CB050008CB05000810
:10009000CB050008CB050008CB050008CB05000800
:1000A000CB050008CB050008CB050008CB050008F0
:1000B000CB050008CB050008CB050008CB050008E0
:1000C000CB050008CB050008CB050008CB050008D0
:1000D000CB050008AB170008CB0500082F18000857
:1000E000CB050008CB050008CB050008CB050008B0
:1000F000CB050008CB050008CB050008CB050008A0
:10010000CB050008CB050008CB050008CB0500088F
:10011000CB050008CB050008CB050008CB0500087F
:10012000CB050008CB050008CB050008CB0500086F
:10013000CB050008CB050008CB050008CB0500085F
:10014000CB050008CB050008CB050008CB0500084F
:10015000CB050008CB050008CB050008B518000842
:10016000CB050008CB050008CB050008CB0500082F
:10017000CB050008CB050008CB050008CB0500081F
:10018000CB050008CB05000800F002F800F03CF8B1
:100190000AA090E8000C82448344AAF10107DA45E2
:1001A00001D100F031F8AFF2090EBAE80F0013F0F8
:1001B000010F18BFFB1A43F00103184714B50000E4
:1001C00034B50000103A24BF78C878C1FAD8520775
:1001D00024BF30C830C144BF04680C6070470000C1
:1001E0000023002400250026103A28BF78C1FBD840
:1001F000520728BF30C148BF0B6070471FB50BF0D6
:100200008DF81FBD10B510BD0BF003F81146FFF7B8
:10021000F5FF00F01BF90BF021F803B4FFF7F2FF34
:1002200003BC01F089FB704700BFFEE700BFFEE79B
:1002300000BFFEE700BFFEE7704770470CB5002027
:10024000019000907648006840F48030744908605E
:1002500000BF7348006800F4003000900198401C13
:100260000190009818B90198B0F5A04FF1D16C48F1
:10027000006800F4003010B10120009001E000207F
:1002800000900098012846D165484030006840F051
:1002900080506349403108606248006840F4404043
:1002A000604908605E48083000685D4908310860B0
:1002B0000846006840F4004008600846006840F4C2
:1002C000A05008605848091F0860081F006840F0E7
:1002D0008070091F086000BF5148006800F000707E
:1002E0000028F9D040F20570504908604C480830A9
:1002F000006820F003004A49083108600846006899
:1003000040F00200086000BF45480830006800F077
:100310000C000828F8D10CBD10B54548006840F421
:100320007000434908603E48006840F001003C49C5
:10033000086000203A4908310860394800683D49A2
:100340000840374908603C48091D0860081F0068DC
:1003500020F48020091F0860002031490C3108601A
:10036000FFF76CFF4FF0006031498039086010BD25
:1003700070B500200022022300240221284D0835F8
:100380002D6805F00C0020B1042806D0082834D1CF
:1003900007E02A4D2A4E356033E02A4D284E35605D
:1003A0002FE01F4D2D1D2D68C5F380541C4D2D1DB4
:1003B0002D6805F03F0154B1224DB5FBF1F5184E03
:1003C000361D3668C6F3881605FB06F209E01B4D9C
:1003D000B5FBF1F5124E361D3668C6F3881605FBDF
:1003E00006F20F4D2D1D2D68C5F301456D1C6B00E8
:1003F000B2FBF3F5124E356003E0104D104E356040
:1004000000BF00BF064D08352D68C5F303150E4E1D
:10041000705D0B4D2D68C540094E356070BD000004
:10042000003802400070004008544007003C024081
:1004300088ED00E0FFFFF6FE103000240024F400F9
:100440000000002000127A000400002088B0A820DC
:1004500000F0FEFF002001F04CF9202206A16846C2
:100460000AF0A1FE07E06946002001F07EF94FF492
:100470007A7001F046F8F6E748656C6C6F2C2057EF
:100480006F726C6421204D616465206279204F7920
:100490006F756E670D0A00000021C0F80411C0F8E6
:1004A00008117047014601F5827005C8904201D1DC
:1004B000012070470020FCE70146D1F80801401CEC
:1004C0004FF4827290FBF2F302FB1300D1F8042187
:1004D000904201D1012070470020FCE710B503468F
:1004E000FF241846FFF7DEFF10B14FF0FF3010BDBC
:1004F000D3F80411481CC3F804015C5CD3F8040170
:10050000B0F5827F02DB0020C3F804012046EEE74D
:1005100030B504460D462046FFF7CEFF08B1002057
:1005200030BDD4F80811481CC4F808016554D4F84B
:100530000801B0F5827F02DB0020C4F80801012029
:10054000EEE70146D1F80421D1F808319A4201DAE8
:10055000981A704703F58270801AFAE72DE9F04186
:1005600080460F46144600254046FFF7EAFF064640
:10057000A64200DD264604E04046FFF7AFFF78556F
:100580006D1CB542F8DB3046BDE8F081F0B507469A
:100590000D461646002406E0295D3846FFF7B8FFF1
:1005A00000B902E0641CB442F6DB00BF2046F0BD97
:1005B0000948804709480047FEE7FEE7FEE7FEE7F7
:1005C000FEE7FEE7FEE7FEE7FEE7FEE70448054933
:1005D000054A064B7047000019030008890100080E
:1005E00090240020902A00209026002090260020B1
:1005F00032490143324A1160704770B5002100232F
:100600000F22C4781CB32E4C246804F4E064C4F5B3
:10061000E064C4F30721C1F10404E3B20A41447861
:100620009C40E1B28478144021430C07210E254CF4
:1006300005786155047804F01F050124AC40057865
:100640006D11AD0005F1E025C5F8004109E0047821
:1006500004F01F050124AC401B4D0678761145F8C7
:10066000264070BD194A0A400243154B1B1F1A60F1
:10067000704739B1124A121D12680243104B1B1DFC
:100680001A6006E00E4A121D126882430C4B1B1DB5
:100690001A607047042808D14FF0E021096941F041
:1006A00004014FF0E022116107E04FF0E0210969F9
:1006B00021F004014FF0E022116170470000FA05BB
:1006C0000CED00E000E400E080E100E080FFFF1FAF
:1006D00010B504469848844208D10121084600F02C
:1006E00086FB0021012000F082FB76E093488442E3
:1006F00008D10121022000F07AFB0021022000F045
:1007000076FB6AE08E48844208D10121042000F083
:100710006EFB0021042000F06AFB5EE08948844201
:1007200008D10121082000F062FB0021082000F020
:100730005EFB52E08448844208D10121102000F081
:1007400056FB0021102000F052FB46E07F48844217
:1007500008D10121202000F04AFB0021202000F0D8
:1007600046FB3AE07A48844208D10121402000F05B
:100770003EFB0021402000F03AFB2EE07548844209
:1007800008D10121802000F032FB0021802000F000
:100790002EFB22E07048844208D10121801500F030
:1007A00026FB0021A01500F022FB16E06B488442D6
:1007B00008D10121401500F01AFB0021601500F05E
:1007C00016FB0AE06648844207D10121001500F0BB
:1007D0000EFB0021201500F00AFB10BDF0B50A4603
:1007E00000210023002400BF3DE0012505FA01F3AC
:1007F000156805EA03049C4234D105684F000326BE
:10080000BE40B543056015794E00B54006683543D6
:1008100005601579012D02D01579022D16D1856854
:100820004F000326BE40B543856055794E00B54064
:10083000866835438560456801268E40B54345602E
:10084000456896798E40B6B235434560C5684F001D
:100850000326BE40B543C560D5794E00B540C66895
:100860003543C560491C1029BFD3F0BD4FF6FF7159
:1008700001600021017141718171C171704708B53A
:100880004FF480320092009A0A430092009AC261AB
:10089000C161009AC261C2690092C269009208BD3A
:1008A0000246002013690B400BB1012000E000203C
:1008B00070470146086980B27047024600205369BC
:1008C0000B400BB1012000E0002070470146486951
:1008D00080B2704701837047418370470AB101833A
:1008E00000E0418370474161704742694A4042617C
:1008F0007047F0B5002300244D07ED0E02FA05F312
:10090000CE1000F1200555F826504E07F70E0F26A1
:10091000BE40B543CF1000F1200646F82750CE1058
:1009200000F1200555F8265045EA0304CE1000F1E9
:10093000200545F82640F0BD0000024000040240BA
:1009400000080240000C0240001002400014024067
:1009500000180240001C0240002002400024024017
:1009600000280240F948006840F00100F74908609B
:100970000020F64908310860F4480068F44908404E
:10098000F2490860F348091D0860F348EF498431D3
:100990000860F0481038091D0860EC48006820F431
:1009A0008020EA4908600020E8490C310860E749E6
:1009B0008C31086070470021E44A921C1170114686
:1009C0000870704710B501460022002300204A112C
:1009D000012A02D1DD4C236808E0022A03D1DB4C56
:1009E0007034236802E0D94C7434236801F01F028C
:1009F000012494401C400CB1012000E0002010BDF7
:100A000038B5002000900024002500BF3120FFF7FA
:100A1000D9FF05460098401C00900098B0F5A04F03
:100A200001D0002DF2D03120FFF7CCFF08B1012416
:100A300000E00024204638BD01460020C34A10686B
:100A400020F0F80040EAC10010607047C349086018
:100A500070470021BD4A703211701170012802D018
:100A600004280AD104E00121B84A7032117005E06F
:100A70000521B64A7032117000E000BF00BF704718
:100A8000B7490860704770B5049C41EA8215012699
:100A9000C6EB530645EA0645054345EA0465AB4EF9
:100AA000361D356070BDAD4908667047820142EA67
:100AB0000172A64B84331A607047A8498866704754
:100AC00010B5830143EA016343EA02739F4C883403
:100AD000236010BDA14908677047A049C8647047EA
:100AE00002460020994B0833186820F0EC6042EA77
:100AF00001031843954B08331860704702460020E5
:100B0000924B0833186820F0784042EA01031843FA
:100B10008E4B083318607047014600208B4A08321C
:100B2000106820F0030008431060704787480830C1
:100B3000006800F00C00704701460020834A08322C
:100B4000106820F0F0000843106070470146002054
:100B50007E4A0832106820F4E05008431060704765
:100B600001460020794A0832106820F4604040EACB
:100B7000C10010607047F0B500210022002402255A
:100B800000260223714F08373F6807F00C0121B19E
:100B9000042905D0082937D105E0724F076036E0F7
:100BA000714F076033E0694F3F1D3F68C7F38056C0
:100BB000664F3F1D3F6807F03F036EB16A4FB7FBBA
:100BC000F3F7DFF888C10CF1040CDCF800C0CCF3BB
:100BD000881C07FB0CF40CE0624FB7FBF3F7DFF85F
:100BE0006CC10CF1040CDCF800C0CCF3881C07FBD2
:100BF0000CF4564F3F1D3F68C7F301477F1C7D0033
:100C0000B4FBF5F7076002E0564F076000BF00BF76
:100C10004E4F08373F6807F0F0010909534F7A5CDF
:100C20000768D7404760494F08373F6807F4E051ED
:100C3000890A4E4F7A5C4768D7408760434F083730
:100C40003F6807F46041490B484F7A5C4768D740DA
:100C5000C760F0BD002100F44072B2F5407F0AD1B8
:100C60003A4A0832116821F4F811414A024011430E
:100C7000364A08321160354A70321268C0F30B03ED
:100C80001A43324B70331A60704735494439086053
:100C900070473349403908607047364908607047EB
:100CA00001460020294A8C32106820F01F004A1E9D
:100CB0001043264A8C321060704701460020234AB8
:100CC0008C32106820F4F8504A1E40EA02201F4A75
:100CD0008C3210607047014600201C4A8C3210682C
:100CE00020F4401008431060704701460020174A66
:100CF0008C32106820F440000843106070470146B1
:100D00000020124A8C32106820F4403008431060F2
:100D1000704719490860704739B10C4A303212687F
:100D200002430A4B30331A6006E0084A3032126838
:100D30008243064B30331A607047F9B1034A3432AC
:100D400012680243014B34331A601CE00038024041
:100D5000FFFFF6EA10300024003000200000474278
:100D6000800E47420024F40000127A001400002094
:100D7000FFFCFF0F5C014742E01147428F4A1268B7
:100D800082438E4B1A60704739B18C4A121D12682B
:100D900002438A4B1B1D1A6006E0884A121D126826
:100DA0008243864B1B1D1A60704739B1834A0C324F
:100DB00012680243814B0C331A6006E07F4A0C3202
:100DC000126882437D4B0C331A60704739B17B4AFD
:100DD000103212680243794B10331A6006E0774AEA
:100DE000103212688243754B10331A60704739B164
:100DF000724A243A12680243704B243B1A6006E0A0
:100E00006E4A243A126882436C4B243B1A60704746
:100E100039B16A4A203A12680243684B203B1A6093
:100E200006E0664A203A12688243644B203B1A600F
:100E3000704739B1614A1C3A126802435F4B1C3B50
:100E40001A6006E05D4A1C3A126882435B4B1C3B09
:100E50001A60704739B1594A143A12680243574B25
:100E6000143B1A6006E0554A143A12688243534B09
:100E7000143B1A60704739B1504A103A1268024365
:100E80004E4B103B1A6006E04C4A103A12688243FF
:100E90004A4B103B1A60704739B1484A1C321268FD
:100EA0000243464B1C331A6006E0444A1C32126867
:100EB0008243424B1C331A60704739B13F4A20329B
:100EC000126802433D4B20331A6006E03B4A203251
:100ED00012688243394B20331A60704739B1374A60
:100EE000243212680243354B24331A6006E0334A39
:100EF000243212688243314B24331A60704739B16F
:100F00002E4A2C32126802432C4B2C331A6006E016
:100F10002A4A2C3212688243284B2C331A607047BD
:100F200039B1264A303212680243244B30331A60FA
:100F300006E0224A303212688243204B30331A6076
:100F40007047012808D11D493C31096841F008016A
:100F50001A4A3C32116007E018493C31096821F017
:100F60000801164A3C321160704739B1134A273ADA
:100F700012780243114B273B1A7006E00F4A273ABA
:100F8000127882430D4B273B1A7070470B48403054
:100F9000006840F0807009494031086070470146A0
:100FA0000020064A283A12680A400AB1012000E0EF
:100FB00000207047014926390870704734380240D4
:100FC00010B50446FA48844208D101211020FFF7E9
:100FD00052FF00211020FFF74EFF57E0F5488442F2
:100FE00009D101214804FFF735FF00214FF40030FB
:100FF000FFF730FF4AE0F048844209D1012188041C
:10100000FFF728FF00214FF48020FFF723FF3DE08A
:10101000EA48844209D10121C804FFF71BFF0021DF
:101020004FF40020FFF716FF30E0E548844209D175
:1010300001210805FFF70EFF00214FF48010FFF794
:1010400009FF23E0DF48844208D101212020FFF777
:1010500012FF00212020FFF70EFF17E0DA4884423C
:1010600009D101218807FFF7F5FE00214FF08040EC
:10107000FFF7F0FE0AE0D548844207D10121400580
:10108000FFF7E8FE00216005FFF7E4FE10BD2DE943
:10109000FF4705460E460024A14600BFA046B08982
:1010A00000B100BF2C8A24F44054F08804432C8201
:1010B000AC8941F20C608443B0883189084371895E
:1010C00008430443AC81AC8A24F44074B0890443DF
:1010D000AC826846FFF74FFDB548854202D0B9485B
:1010E000854202D1DDF80C9001E0DDF80890A88976
:1010F00000F4004040B109EBC90000EB0910316871
:101100004900B0FBF1F707E009EBC90000EB09105B
:1011100031688900B0FBF1F76420B7FBF0F00401FF
:101120002009642101FB1078A88900F4004040B137
:10113000322000EBC800B0FBF1F000F007000443E0
:1011400008E0322000EB08106421B0FBF1F000F061
:101150000F0004432C81BDE8FF874FF41651016056
:1011600000218180C18001810C2141810021818188
:10117000704710B502460020108A20F470600B887A
:101180004C8823438C882343CC8823431843108204
:1011900010BD0021018041808180C180704721B154
:1011A000828942F40052828104E082894DF6FF7305
:1011B0001A4082817047028B02F47F420283028BC5
:1011C0000A430283704721B1828942F4004282813E
:1011D00003E08289C2F30E028281704721B1828AC4
:1011E00042F40062828204E0828A4FF2FF731A4066
:1011F00082827047C1F30802828070470146888866
:10120000C0F308007047028A4FF6F0731A4002825A
:10121000028A0A430282704721B1828942F00202A7
:10122000828104E082894FF6FD731A408281704703
:1012300082894FF2FF731A40828182890A43828138
:101240007047028A4FF6DF731A400282028A0A430D
:101250000282704721B1028A42F48042028204E095
:10126000028A4BF6FF731A4002827047818941F06F
:1012700001018181704721B1828A42F00802828295
:1012800004E0828A4FF6F7731A4082827047028B1D
:10129000D2B20283028B42EA01220283704721B15B
:1012A000828A42F02002828204E0828A4FF6DF7353
:1012B0001A408282704721B1828A42F010028282F3
:1012C00004E0828A4FF6EF731A4082827047828A66
:1012D0004FF6FB731A408282828A0A4382827047E9
:1012E00021B1828A42F00202828204E0828A4FF6B1
:1012F000FD731A40828270471AB1838A0B4383823E
:1013000002E0838A8B4383827047F0B50346002452
:1013100000260025002040F66A17B94200D100BF20
:101320001846C1F3421401F01F06012707FA06F51B
:10133000012C01D10C3004E0022C01D1103000E06E
:1013400014301AB107682F43076002E00768AF4303
:101350000760F0BD02460020B1F5007F00D100BF5C
:1013600013880B400BB1012000E00020704701F40E
:101370000072B2F5007F00D100BFCA4302807047FF
:1013800070B50246002400230025002040F66A16AE
:10139000B14200D100BFC1F3421501F01F03012685
:1013A00006FA03F3012D13D19689334017E00000AC
:1013B000001001400044004000480040004C004044
:1013C000005000400014014000780040007C0040C4
:1013D000022D02D1168A334001E0968A33400C1266
:1013E000012606FA04F41688344013B10CB101202A
:1013F00000E0002070BD10B50022002340F66A1402
:10140000A14200D100BF0A1201249440A3B2DC43E0
:10141000048010BD08B5684602F03CFA08BD08B566
:10142000684602F081FA08BD38B504466A460821CC
:10143000204608F067FD38BD10B542480078012805
:1014400005D102F06DF908F0E9FF02F07AF910BD5C
:1014500070B504466FF00400FFF71CF92046E11751
:1014600004EB5171C1F3C701374A1170E11704EB66
:101470005171CD10354800683549B1FBF0F0454356
:10148000324800684FF47A71B1FBF0F031490880BE
:101490004FF0E020006940F002004FF0E0210861C9
:1014A00008464561006940F00100086170BD2DE902
:1014B000F047074600264FF0E020D0F8149022486D
:1014C000007807FB00F8FFF7A5FF4FF0E0208569E3
:1014D00011E04FF0E0208469AC420CD0AC4202D263
:1014E000281B064403E0A9EB0400284406442546D3
:1014F000464500D300E0ECE700BFFFF790FFBDE8F2
:10150000F08770B504460F480078A0B11248007803
:1015100088B910480088844206DB0E48008894FB96
:10152000F0F52846FFF780FF0A48008894FBF0F1A9
:1015300000FB114084B24FF47A7104FB01F0FFF715
:10154000B6FF70BD690000202400002020B500080F
:1015500040420F00260000206800002000B587B040
:1015600001210420FFF7D8FB01212020FFF72EFCEA
:1015700008220621F748FFF7BCF908220721F548A1
:10158000FFF7B7F9C020059002208DF818008DF8FC
:10159000190000208DF81A0001208DF81B0005A904
:1015A000EC48FFF71BF94FF4614000900020ADF8C4
:1015B0000400ADF80600ADF80800ADF80C000C20F2
:1015C000ADF80A006946E448FFF761FD0121E248F1
:1015D000FFF7E5FD4021E048FFF7C9FE012240F298
:1015E0002551DD48FFF791FE47208DF810000320BC
:1015F0008DF8110002208DF8120001208DF81300E3
:1016000004A8FEF7FAFFD448D4494861D448FEF74D
:1016100043FFD348D349486107B000BD10B5D24855
:10162000CE498860D148FEF737FFD048CD49886061
:1016300010BD00B587B001210846FFF76DFB012101
:101640001020FFF7C3FB07220921C948FFF751F912
:1016500007220A21C648FFF74CF94FF4C0600590F5
:1016600002208DF818008DF8190000208DF81A005E
:1016700001208DF81B0005A9BD48FFF7AFF84FF416
:10168000E13001900020ADF80800ADF80A00ADF897
:101690000C00ADF810000C20ADF80E0001A9B54803
:1016A000FFF7F5FC0121B348FFF779FD4021B14870
:1016B000FFF75DFE012240F22551AE48FFF725FEFF
:1016C00025208DF8000003208DF801008DF8020020
:1016D00001208DF803006846FEF78FFFA5489F495B
:1016E0000860A548FEF7D8FEA3489E49086007B0E9
:1016F00000BD10B5044624B1022C05D0052C09D13B
:1017000005E0FFF796FF06E0FFF788FF03E0FFF72D
:1017100025FF00E000BF00BF10BD70B504468F4834
:1017200050F82450012240F227712846FFF7EDFDC2
:1017300070BD2DE9F04104460E4617461D46894806
:1017400050F824803A4631464046FEF71FFF834951
:1017500051F82400012240F22771FFF7D6FD15B1A0
:101760002046FFF7DAFFBDE8F08170B505460C466C
:10177000204609F0F9FC0646012332462146284658
:10178000FFF7D7FF70BD20B1022805D0052809D189
:1017900005E07A4A116006E0794A116003E0794A6F
:1017A000116000E000BF00BF704710B540F2277124
:1017B0007048FFF7E5FD012817D16F48FEF772FE6C
:1017C00030B1002240F227716A48FFF79EFD07E022
:1017D0006948FEF783FE84B221466648FFF70AFD9A
:1017E00040F227716348FFF706FE40F22551614839
:1017F000FFF7C6FD01280FD16048006838B15D4889
:10180000FFF7FCFCC4B220465C490968884740F2F7
:1018100025515848FFF7EFFD4FF458715548FFF731
:10182000AFFD012802D15348FFF7E8FC10BD10B509
:1018300040F227714C48FFF7A3FD012817D14B4810
:10184000FEF730FE30B1002240F227714648FFF724
:101850005CFD07E04548FEF741FEC4B22146424820
:10186000FFF7C8FC40F227713F48FFF7C4FD40F284
:1018700025513D48FFF784FD01280FD13A48FFF775
:10188000BDFCC4B23E48006818B120463C49096816
:10189000884740F225513448FFF7ADFD4FF45871A9
:1018A0003148FFF76DFD012803D12F48FFF7A6FC53
:1018B000C4B210BD10B540F227712748FFF760FD94
:1018C000012817D12648FEF7EDFD30B1002240F285
:1018D00027712148FFF719FD07E02148FEF7FEFDBB
:1018E00084B221461C48FFF785FC40F227711A4854
:1018F000FFF781FD40F225511748FFF741FD012810
:101900000FD12048006838B11348FFF777FCC4B204
:1019100020461C490968884740F225510E48FFF7C8
:101920006AFD4FF458710C48FFF72AFD012802D1D7
:101930000948FFF763FC10BD014600BF704700BFB8
:101940000C4A128802F04002002AF9D0C2B2094BB8
:101950009A807047000802400014014014010020E2
:101960005C0300202C0100200048004050020020B1
:101970000000024000100140440100202800002027
:101980002C000020300000201FB56846FFF7F3F858
:10199000019804B010BD10B5FFF7F6FF04461848D3
:1019A000006840F0807016490860002015494860C2
:1019B0000846006840F001000860204600F0B7F8D3
:1019C00010BD1049486870472DE9F0478246FFF77F
:1019D000DBFF4FF0000980460B4A00234046494692
:1019E00009F04BFB064632460B465046002109F0F3
:1019F00044FB04460D4620462946BDE8F08700001A
:101A0000FCED00E0001000E040420F0010B50024A3
:101A100000BF00BF00F054F9044600BF00BF102112
:101A2000A24800F0D4FA00BF00BF204600F04CF9F5
:101A300000BF00BF10BD10B5FFF7E8FF10BD10B527
:101A400000209B490860FFF7A6FF10BD10B5FFF707
:101A5000F6FFFFF7F0FF10BD00BFFEE770B50546CB
:101A60000C46002614B900BFFFF7F6FF15B90A208F
:101A7000208070BD00BF00BF00F022F9064600BF05
:101A800000BF10228949284600F058FF00BF00BF60
:101A9000304600F019F900BF00BF0020208000BFD1
:101AA000E7E72DE9F04105460C46002714B900BFD1
:101AB000FFF7D2FF1DB90A202080BDE8F081102178
:101AC000284600F023FF0646102E15D200BF00BFA7
:101AD00000F0F6F8074600BF00BF10222946734801
:101AE00000F02CFF00BF00BF384600F0EDF800BF4B
:101AF00000BF0020208002E04FF47A70208000BFF9
:101B0000DBE710B5FFF75DFF0446204610BD7047C8
:101B100000B5014611B900BFFFF79EFF644A106887
:101B200008B1002201E04FF4FA620A8000BD60496A
:101B30000860704770B50546284600F0CCF80446AA
:101B4000183C204670BD70B50546284600F0C3F825
:101B50000446103C204670BD70B50546284600F08E
:101B6000BAF8044600BF204670BD30B502460B46A9
:101B70004FF0FF350024AD1A9C4127D24FF0FF35BE
:101B80002C0CAD1A9C410FD24FF0FF352C0AAD1A28
:101B90009C4103D2190E474C605C45E0190C454C42
:101BA000645C04F108003FE04FF0FF35FF24AD1AFC
:101BB0009C4105D2190A3F4C645C04F1100033E0EB
:101BC00019463C4C645C04F118002DE04FF6FF759B
:101BD0000024AD1A9C4115D26FF07F450024AD1A48
:101BE0009C4107D2140E44EA0321324C645C04F198
:101BF000200019E0140C44EA03412E4C645C04F10B
:101C0000280011E0FF250024AD1A9C4107D2140AD8
:101C100044EA0361274C645C04F1300004E011469F
:101C2000244C645C04F1380030BD70B504460CB936
:101C3000082070BD204600F051F805462846F8E718
:101C400070B504460CB9102070BD204600F046F86F
:101C500005462846F8E770B504460CB9202070BD4B
:101C6000204600F03BF805462846F8E72DE9F0430A
:101C700004460D46002184EA01006940084302D170
:101C80004020BDE8F083E243E843521C40F10001EC
:101C900002EA040601EA050730463946FFF765FF08
:101CA0008046C8F13F094846EBE700006804002081
:101CB0003800002028B3000872B6704762B670473B
:101CC000EFF3108072B6704780F31088704730BF12
:101CD000704720BF7047B0FA80F0704790FAA0F0CC
:101CE000B0FA80F0704790FAA0F0704701464129A1
:101CF00003DB5A2901DC012200E00022012A08D07E
:101D0000612903DB7A2901DC012200E00022012A9B
:101D100001D1012200E0002210467047014641290E
:101D200003DB5A2901DC012200E00022012A08D04D
:101D3000612903DB7A2901DC012200E00022012A6B
:101D400001D1012200E00022012A08D0302903DB62
:101D5000392901DC012200E00022012A01D10122FF
:101D600000E00022104670470146612903DB7A2912
:101D700001DC012200E000221046704701464129A3
:101D800003DB5A2901DC012200E0002210467047E3
:101D90000146302903DB392901DC012200E0002261
:101DA000104670470146302903DB372901DC012248
:101DB00000E00022104670470146302901DB392936
:101DC00007DD412901DB462903DD612903DB6629A3
:101DD00001DC012200E00022104670470146202964
:101DE00001D0092901D1012200E0002210467047EC
:101DF0000146202909D00D2907D00A2905D00C2930
:101E000003D0092901D00B2901D1012200E00022D1
:101E1000104670470146202903DB7E2901DC0122A0
:101E200000E00022104670470146212903DB7E298D
:101E300001DC012200E00022104670470146202903
:101E400003DB7E2901DC012200E00022012A35D1DA
:101E5000202909D00D2907D00A2905D00C2903D043
:101E6000092901D00B2901D1012200E000222ABB5F
:101E7000412903DB5A2901DC012200E00022012A6A
:101E800008D0612903DB7A2901DC012200E000226D
:101E9000012A01D1012200E00022012A08D03029C4
:101EA00003DB392901DC012200E00022012A01D1F3
:101EB000012200E000220AB9012200E000221046BF
:101EC000704701464AB2002A01DB1F2901DD7F2944
:101ED00001D1012200E0002210467047014641294D
:101EE00003DB5A2901DC012200E00022012A02D191
:101EF00001F1200200E00A46D0B270470146612994
:101F000003DB7A2901DC012200E00022012A02D150
:101F1000A1F1200200E00A46D0B27047F0B50446B5
:101F20000B462046FFF7EAFF05461846FFF7E6FF97
:101F30000646B54201D1012000E0002007463846A0
:101F4000F0BD0000FC48FD490160014641600021F0
:101F50008160C160016141618161C16101620163B0
:101F6000C1624162F6498163C1634FF480610164DB
:101F700041640146F34A116070472DE9F04105467E
:101F80000B4694460027002402E03F021F43641CD6
:101F9000042CFAD3604605F00306294646B13446C0
:101FA00003E001F8013B401E641C08B1042CF8D387
:101FB0000A4601E080C2001F0428FBD2114602E05D
:101FC00001F8013B401E0028FAD1BDE8F08130B590
:101FD00005460C46224600212846FFF7CEFF30BDBD
:101FE0002DE9F04F85B007468846914646463D4666
:101FF000AE4207D94A464146384601F01DF905B0C0
:10200000BDE8F08F4C4607EB0900451E08EB0900C0
:10201000461EA81B04900498042834D305F003003E
:10202000029006F003010191DDE90110884201D11F
:10203000012000E0002000900098012823D10298A0
:10204000032810D0029840B2039008E016F8010966
:1020500005F80109641E0398401E40B2039014B1B4
:1020600003980028F2DAA5F1030AA6F1030B04E0B5
:102070005BF804094AF80409241F042CF8D20AF179
:1020800003050BF1030604E016F8010905F8010940
:10209000641E002CF8D100BFB1E72DE9F84F80464F
:1020A0008946154615B90120BDE8F88FB8F1000F33
:1020B00001D10020F8E7B9F1000F01D10020F3E7CA
:1020C0000124294608EB050209EB050302F0030C85
:1020D00003F0030BDC4501D1012000E0002000905B
:1020E0000098012829D1BCF1000F12D0E2460AE085
:1020F000521E5B1E107893F800E0704500D000245B
:10210000491EAAF1010A012C03D111B1BAF1000F45
:10211000EED1012C11D116461F4608E0361F3F1F95
:102120003068D7F800E0704500D00024091F012C6A
:1021300001D10429F2D232463B4608E0521E5B1E12
:10214000107893F800E0704500D00024491E012C5F
:1021500001D10029F2D12046A6E7F0B503460E468C
:102160001546D96BB1FBF5F005FB101CBCF1000F57
:1021700002D0A5EB0C0200E000229419586CA0429A
:1021800001D20020F0BD0F191144DF63586C001B11
:1021900058640846F6E72DE9F04106460F46B6FBBF
:1021A000F3FC03FB1C6109B15C1A00E00024B2FBE4
:1021B000F3FC03FB1C2109B15D1A00E0002502EBD2
:1021C0000508A7F1010C08FB0C4C0CEB0200BDE864
:1021D000F0812DE9FE4F8046894614461E460020B8
:1021E00000900CB901AC00BF00202060524F00BF2E
:1021F00000BFFFF765FD009000BF00BFF86B0290C5
:10220000D7F844B04B46424601210298FFF7C3FF7E
:1022100005465D450FD900BF00BF0098FFF754FD8C
:1022200000BF00BFA5EB0B00206042F2E2703080DF
:102230000020BDE8FE8F4A4641463846FFF78DFF35
:102240008246BAF1000F0CD100BF00BF0098FFF723
:102250003BFD00BF00BF256042F2E27030800020ED
:10226000E7E700BF00BF0098FFF72EFD00BF00BFEB
:1022700042F2107030805046DBE72DE9FC5F0746E4
:102280000C4690460020009000BF00BFFFF718FDED
:10229000009000BF00BFD7F80490D9F8380008B10B
:1022A000484600E024488246DAF84450DAF83CB068
:1022B00000BF00BF0098FFF707FD00BF00BF012C63
:1022C0000AD9BBFBF4F004FB10B60EB1A01B00E072
:1022D0000020019001982D1A42F21070A8F8000019
:1022E0002846BDE8FC9F70B504460D462A462146A7
:1022F0001148FFF7C2FF0646304670BD18B942F2DA
:1023000011720A807047104A0260002242608260A7
:10231000C260026142618261C261026282624263A2
:102320000263C26242628263C2630264426442F236
:1023300010720A8000BFE5E778040020484541504C
:10234000C00400203C0000204E4F4E452DE9FF4FB9
:1023500091B00446DDE9208900200090B8F1000F1B
:1023600002D10DF1180800BF0020C8F8000049464E
:102370002046FFF7C3FFB9F8000042F2107188420F
:1023800002D015B0BDE8F08FFE48006820B942F2D7
:10239000E770A9F80000F4E7DFF8ECA3002005904F
:1023A00000BF00BFFFF78CFC009000BF00BF129879
:1023B00080BB5546AB462E46DAF83C000D90042310
:1023C0001A4614990D98FFF7E6FE049004990D98AB
:1023D00008440C90DDE91E2314990C98FFF7DBFEEE
:1023E0000390DDE9030108440590DAF8447005988C
:1023F000B8427DD900BF00BF0098FFF765FC00BF61
:1024000000BF0598C01BC8F8000042F2E270A9F8AE
:102410000000B6E7FFE712980B90DDE912010844CF
:10242000401E0A900025AB46D64806683BE0B16BDB
:102430001298814205D1316C1398814201D1354601
:1024400033E0B06B0990316CB06B0844401E0890CB
:10245000DDE90901814200D227E009990B98884201
:1024600003D8DDE9091088420FD209990B988842F8
:1024700003D308990A98884207D908990B9888428B
:102480000FD808990A9888420BD300BF00BF009864
:10249000FFF71AFC00BF00BF42F27F70A9F80000EE
:1024A0006FE7B346F668002EC1D100BF45B9254697
:1024B0001298A0631298E0631398206413986064E4
:1024C000DAF83C000D9004231A4614990D98FFF792
:1024D00062FE0490DAF844700498B84211D900BF43
:1024E00000BF0098FFF7F0FB00BF00BF049800E0BA
:1024F00024E0C01BC8F8000042F2E270A9F8000016
:102500003FE7E86B0C90DDE91E2314990C98FFF768
:1025100042FE03906F6C0398B8420FD900BF00BF12
:102520000098FFF7D1FB00BF00BF0398C01BC8F89D
:10253000000042F2D870A9F8000022E71498800049
:102540000290042250460299FFF707FE0F900F9861
:1025500030BBDAF8447000BF00BF0098FFF7B4FB4F
:1025600000BF00BF129858B90598B84204D9059821
:10257000C01BC8F800000EE00598C8F800000AE08B
:102580000298B84204D90298C01BC8F8000002E0C3
:102590000298C8F8000042F2E270A9F80000F0E6E4
:1025A0000020019034E02846DDE91E12FFF7D5FD3A
:1025B0000E900E9820BBE86B0C906F6C00BF00BFB4
:1025C0000098FFF781FB00BF00BF01991498401AE3
:1025D0000790DDE91E2307990C98FFF7DCFD0590B5
:1025E0000598B84204D90598C01BC8F8000002E05D
:1025F0000598C8F8000042F2D870A9F80000C0E6BB
:10260000019ADDE90E0141F822000198401C019079
:10261000149901988842C6D3A5420DD1C4F808B0D8
:10262000E660BBF1000F02D0CBF80C4001E055484A
:1026300004605EB1B46009E068691090256110988B
:1026400060616C61109808B1109804614F48206077
:1026500065600C98A06103990C980844401EE061E5
:102660000F9820620398A0621F9860631E982063F1
:102670001498E0621498606200BF00BF0098FFF7F2
:1026800023FB00BF00BF42F21070A9F8000000BF9A
:1026900077E62DE9F04104460D46002700BF00BF54
:1026A000FFF70EFB074600BF00BF666A00BF00BF12
:1026B0003846FFF709FB00BF00BF42F210702880C8
:1026C0003046BDE8F0812DE9F041044688461546C4
:1026D000002700BF00BFFFF7F3FA074600BF00BFA7
:1026E000606A60B900BF00BF3846FFF7EDFA00BF6F
:1026F00000BF42F2DE7028800020BDE8F081E16A70
:10270000606A88420BD900BF00BF3846FFF7DCFA89
:1027100000BF00BF42F2957028800020EDE7606A9C
:10272000401E6062D4E9080150F8216000BF00BF7C
:102730003846FFF7C9FA00BF00BF42F21070288088
:102740003046DAE72DE9F04704460F4615464FF0CC
:10275000000900BF00BFFFF7B3FA814600BF00BF0A
:10276000E06AC01B461EE06AB04213D800BF00BF3B
:102770004846FFF7A9FA00BF00BF42F295702880D3
:10278000002005E03C00002078040020504F4F4C12
:10279000BDE8F087606AB0420BD900BF00BF484671
:1027A000FFF792FA00BF00BF42F295702880002028
:1027B000E7E7206A50F8268000BF00BF4846FFF7D1
:1027C00083FA00BF00BF42F2107028804046D8E76D
:1027D0002DE9F04704460E4617464FF0000A00BFA9
:1027E00000BFFFF76DFA824600BF00BFE16A606A72
:1027F00088420BD300BF00BF5046FFF765FA00BF09
:1028000000BF42F2DD703880BDE8F0874FF000086D
:10281000656A08E0206A50F82590B14502D14FF072
:10282000010803E06D1CE06AA842F3D800BFB8F1CC
:10283000010F06D1D4E9080150F82100216A41F8BE
:102840002500D4E9080140F82160606A401C6062FC
:1028500000BF00BF5046FFF737FA00BF00BF42F28B
:102860001070388000BFCFE72DE9F84F04460F46BF
:102870001646002000904FF0FF3B00BF00BFFFF75F
:102880001FFA009000BF00BFE16A606A88420CD363
:1028900000BF00BF0098FFF717FA00BF00BF42F269
:1028A000DD7030805846BDE8F88F4FF00009656A4A
:1028B00008E0206A50F82580B84502D14FF00109A0
:1028C00003E06D1CE06AA842F3D800BFB9F1010F24
:1028D0000FD1E06A401EA0EB050A00BF00BF0098C0
:1028E000FFF7F2F900BF00BF42F21070308050468F
:1028F000D9E700BF00BF0098FFF7E6F900BF00BFAF
:1029000042F2887030805846CDE7000010B502468C
:102910000B461146002001E0491C401C19B10C78FF
:102920000CB19842F8D310BD30B504464FF0FF31DA
:102930002046FFF7EBFF0546284630BD70B504463C
:102940000D4616460CB9002070BD0DB90020FBE7FE
:1029500021462A46002304E010780870491C521CC6
:102960005B1C21B11AB1107808B1B342F4D301B1A4
:102970000AB90020E8E7B34201D2002008702046DF
:10298000E2E770B504460D464FF0FF322946204677
:10299000FFF7D4FF0646304670BD70B503460C46BF
:1029A00015460BB9002070BD0CB90020FBE70DB92E
:1029B0001846F8E7194600E0491C11B108780028CC
:1029C000FAD109B90020EEE72246002604E010788B
:1029D0000870491C521C761C21B11AB1107808B13C
:1029E000AE42F4D301B10AB90020DCE70020087040
:1029F0001846D8E770B504460D464FF0FF32294619
:102A00002046FFF7CAFF0646304670BD2DE9F04369
:102A100005460B469446BCF1000F02D10020BDE8EC
:102A2000F08335B90BB90020F9E718784242104617
:102A3000F5E713B92A781046F1E729461C460F46F8
:102A400026467F1C761C4FF0000805E0491C641CDC
:102A50007F1C761C08F10108087894F8009048451E
:102A600005D1087818B117B10EB1E045EED3E045B5
:102A700001D10020D3E7087894F80090484505D0AC
:102A8000087894F80090A0EB09020BE0087808B9E8
:102A9000002207E02FB90EB9002203E0307842424D
:102AA00000E03A781046BAE770B504460D464FF09C
:102AB000FF3229462046FFF7A9FF0646304670BD83
:102AC0002DE9F74F82B080460E46049818B90020D1
:102AD00005B0BDE8F08FB8F1000F09D10EB90020A4
:102AE000F6E73078FFF7FAF907467C422046EFE731
:102AF0003EB998F80000FFF7F1F905462C4620464C
:102B0000E6E7C146B246C846C3465646CDF804A0DD
:102B1000D8460BF1010B019E701C0190C84699F834
:102B20000000FFF7DBF9054656469AF80000FFF76C
:102B3000D5F907460020009015E009F101090AF1D6
:102B4000010A0BF1010B0198401C01900098401CF8
:102B5000009099F80000FFF7C1F905469AF80000C7
:102B6000FFF7BCF90746BD420BD199F8000040B110
:102B7000BBF1000F05D0019818B104990098884264
:102B8000DBD304990098884201D10020A0E7BD4220
:102B900001D0EC1B16E00DB9002413E0BBF1000FCF
:102BA0000AD1019808B900240CE001990878FFF7D0
:102BB00095F907467C4205E09BF80000FFF78EF987
:102BC00005462C46204683E770B504460D464FF077
:102BD000FF3229462046FFF773FF0646304670BD98
:102BE00030B504460B4615460CB9002030BD0BB974
:102BF0000020FBE72146002201E0491C521C31B1B4
:102C0000087820B10878A84201D09A42F5D309B9D2
:102C10000020EBE79A4201D30020E7E70878A842BA
:102C200001D00020E2E70846E0E770B505460C4613
:102C300022464FF0FF312846FFF7D2FF06463046C6
:102C400070BD2DE9F04305460E46174615B9002024
:102C5000BDE8F0830EB90020FAE72C46A6F1010981
:102C600049462046FFF752FE804644440CB90020F6
:102C7000EEE700E0641EAC4202D02078B842F9D101
:102C80002078B84201D00020E2E72046E0E770B5A6
:102C900005460C4622464FF0FF312846FFF7D1FF8C
:102CA0000646304670BD70B504460D4616460CB952
:102CB000002070BD0BB90020FBE721461A4605E055
:102CC0000878A84200D10E70491C521E19B108782C
:102CD00008B1002AF4D12046EBE7F0B504460D46D2
:102CE00016464FF0FF33324629462046FFF7DBFFFA
:102CF00007463846F0BD2DE9FF4F06460F461546FC
:102D00001EB9002004B0BDE8F08F0FB90020F9E72C
:102D10000DB90020F6E7681C00B101E04FF0FF306C
:102D2000039029463046FFF7F1FD80463846039967
:102D3000FFF7ECFD04460CB93046E3E7444501D902
:102D40000020DFE706EB080BBBF1000F01D10020EC
:102D5000D8E707EB040BBBF1000F01D10020D1E74E
:102D6000A8EB040002904FF000090020019000BF82
:102D700006EB09000090224639460098FFF746FE10
:102D80008246BAF1000F01D1012000E0002001903D
:102D900009F10109019810B902988145E8D9BAF101
:102DA000000F01D00020ADE70098ABE770B50446F6
:102DB0000D464FF0FF3229462046FFF79CFF06469E
:102DC000304670BD2DE9FF4F8DB00F4615461A9E57
:102DD0001D9818B9002011B0BDE8F08F00200390B5
:102DE0000490012F01DA01200390022D01D3242D3C
:102DF00001D90120039096B33046FFF70BF80290FB
:102E00000298012802D00120039028E0302E26D01D
:102E1000A6F13000C0B207901B98012804D0A6F19B
:102E20004100C0B2069003E0A6F16100C0B2069076
:102E30000A2D02D80798A84209DB0A2D09D907985C
:102E40000A2804D3A5F10A000699884201D9012075
:102E500000E0002005900598012800D103901D9CFA
:102E60000398002846D1DDF834A0DDF834A0CDF871
:102E700030A001200B9007E00B98401CC0B20B90D3
:102E80000C98B0FBF5F00C900C98A842F4D2109876
:102E9000012800D100E0002009900B99099808440E
:102EA000B84225DC002001900B98B84201DA0B985B
:102EB00000E038460A903EB1B8460A98391A099897
:102EC000081AC0B2089006E0DDE90910084400F0D5
:102ED000FF08002008900898002806DD302E01D158
:102EE000012000E00020049004E00020049001E0B4
:102EF00001200390039800B1B84644441C9808B1DF
:102F000000202070641E4FF0000941E00398A8BB28
:102F1000BAF1000F02D1B9F1000F1CD1BAFBF5F0E4
:102F200005FB10A000F0FF0BBBF10A0F04D20BF160
:102F3000300004F801090BE01B98012804D00BF1C4
:102F4000370004F8010903E00BF1570004F8010908
:102F5000BAFBF5FA1AE01098012810D1049808B9C4
:102F6000019828B1049850B1A8F10100484506D154
:102F70002D2004F801090120019007E003E02EB1A3
:102F800004F8016902E03F2004F8010909F1010990
:102F9000C145BBD3039808B100201CE71D981AE770
:102FA0002DE9FF5F05460E4617461C46DDE90F9AE0
:102FB000DDF8388000233A46314628468DE8100770
:102FC000FFF700FF8346584604B0BDE8F09F2DE9A7
:102FD000FF4F85B0044689461F46DDE913AB002C40
:102FE00002DA6542012601E02546002612983346A2
:102FF000CDE902ABCDE9007049462846079AFFF7B4
:10300000E1FE8046404609B0BDE8F08F2DE9FF4F54
:103010008BB0064689461546B9F1000F02D10DF175
:10302000240900BFC9F80060189810B907A81890C3
:1030300000BF0021189801701EB900200FB0BDE834
:10304000F08F012D01D0242D01D90020F6E7344660
:103050002078FEF7CDFE039004E0641C2078FEF794
:10306000C7FE039003980128F7D020782B2802D0C0
:103070002D280BD103E0641C4FF0000B09E00E98E3
:10308000012800D1641C4FF0010B02E04FF0000B4F
:1030900000BF00BF0A9425B1082D1CD0102D36D1D9
:1030A0001EE02078302814D1641C2078582802D0E3
:1030B00078280BD100BF102567783846FEF77CFED4
:1030C0008246BAF1010F00D1641C01E0082500BF5F
:1030D00000E00A251CE02078302800D1641C17E0AD
:1030E0002078302812D1641C2078582802D0782803
:1030F0000AD100BF67783846FEF75EFE8246BAF115
:10310000010F00D1641C00E000BF00BF00E000BF61
:1031100000BF4FF0000800200290019040E02778A7
:103120003846FEF7FBFD05900598012836D1384654
:10313000FEF72EFE06900698012804D1A7F1300074
:10314000C0B208900FE03846FEF70EFE04900498D7
:10315000012804D1A7F15700C0B2089003E0A7F1FD
:103160003700C0B208900898A84214DA029880B9D3
:10317000304850F82500404509D308FB05F8089869
:1031800080440898804504D20120029001E001208B
:103190000290641C04E00120019001E001200190F4
:1031A00001980028BBD00298012801D14FF0FF38C8
:1031B0000A98844202D0C9F8004001E0C9F80060D2
:1031C000189880F800B0404638E7F8B504460D4638
:1031D0001646002003463246294600902046FFF757
:1031E00015FF07463846F8BD2DE9FC4105460E4659
:1031F000174601A801233A46314600902846FFF7BA
:1032000005FF04469DF8040040B9B4F1004F02D315
:103210006FF0004000E02046804607E0B4F1004F28
:1032200002D34FF0004000E0604280464046BDE8D7
:10323000FC8100002CB40008002800D17047002950
:1032400000D17047002A00D170472DE9F81F00F027
:10325000030301F00304A34211D1C3F1040303F0FB
:103260000303012B1DD3012A00D2F2E011F8014B18
:1032700000F8014BA3F10103A2F10102F1E700F014
:10328000010301F00104A34200D094E0012B44D3D8
:1032900011F8014B00F8014BA3F10103A2F1010267
:1032A000F4E7B2F5B47F26D3B1E8F81FA0E8F81F21
:1032B000B1E8F81FA0E8F81FB1E8F81FA0E8F81F70
:1032C000B1E8F81FA0E8F81FB1E8F81FA0E8F81F60
:1032D000B1E8F81FA0E8F81FB1E8F81FA0E8F81F50
:1032E000B1E8F81FA0E8F81FB1E8F81FA0E8F81F40
:1032F000A2F5B472D5E7282A06D3B1E8F81FA0E8F2
:10330000F81FA2F12802F6E7042A06D351F8043B7D
:1033100040F8043BA2F10402F6E7202A42D331F838
:10332000023B20F8023B31F8023B20F8023B31F827
:10333000023B20F8023B31F8023B20F8023B31F817
:10334000023B20F8023B31F8023B20F8023B31F807
:10335000023B20F8023B31F8023B20F8023B31F8F7
:10336000023B20F8023B31F8023B20F8023B31F8E7
:10337000023B20F8023B31F8023B20F8023B31F8D7
:10338000023B20F8023B31F8023B20F8023B31F8C7
:10339000023B20F8023B31F8023B20F8023BA2F14D
:1033A0002002BAE7022A06D331F8023B20F8023B9A
:1033B000A2F10202F6E7102A42D311F8013B00F80D
:1033C000013B11F8013B00F8013B11F8013B00F80B
:1033D000013B11F8013B00F8013B11F8013B00F8FB
:1033E000013B11F8013B00F8013B11F8013B00F8EB
:1033F000013B11F8013B00F8013B11F8013B00F8DB
:10340000013B11F8013B00F8013B11F8013B00F8CA
:10341000013B11F8013B00F8013B11F8013B00F8BA
:10342000013B11F8013B00F8013B11F8013B00F8AA
:10343000013B11F8013B00F8013BA2F11002BAE791
:10344000012A06D311F8013B00F8013BA2F1010269
:10345000F6E7BDE8F81F70471548164816481748A4
:10346000174818481848194819481A481A481B4854
:103470001B481C481C481D481D481E481E481F4824
:103480001F482048204821482148224822482348F4
:1034900023482448244825482548264826482748C4
:1034A0002748284828482948294800BF7047000075
:1034B00060B50008C0B40008C4B40008C8B400086F
:1034C000CCB40008D0B40008D4B40008D8B40008C4
:1034D000DCB40008E0B40008E4B40008E8B4000874
:1034E000ECB40008F0B40008F4B40008F8B4000824
:1034F000FCB4000800B5000804B5000808B50008D1
:103500000CB5000810B5000814B5000818B500087F
:103510001CB5000820B5000824B5000828B500082F
:103520002CB5000830B5000834B5000838B50008DF
:103530003CB5000840B5000844B5000848B500088F
:103540004CB5000850B5000854B5000858B500083F
:103550005CB50008002400BF19E000BF00BFFEF703
:10356000AFFB044600BF00BFF9480068401CF849A3
:103570000860F8480068401CF649086000BF00BFBA
:103580002046FEF7A1FB00BF00BF07F079FBE4E790
:1035900010B58AB004460020ED4908600B200021D8
:1035A0000591CDE9070406910846EB490968EB4A05
:1035B0001268EB4B1B68CDE90132CDE903103F20C7
:1035C0000023AFF26F02E7A10090EB4804F084FD06
:1035D0000AB010BD00210AE001EB4102E74B03EB0A
:1035E000820000220281026042604A1CD1B240295E
:1035F000F2D3704770B5044607F04AFB0020E0495B
:103600000870E0490870E0490870E0490860E04946
:103610000860E0490870E0490870E0490870E04936
:103620000860E0490860E0490860E0490870E04847
:1036300000680A21B0FBF1F0DE490860DE4800684E
:1036400058B1DE48056845B1DB48066803E0761EE0
:10365000002028602D1D002EF9D10020D8490860D7
:10366000D8490860D8490860D8490860D849086036
:10367000D8490860D8490860D849087003F00CF8A8
:10368000FFF7A8FF204601F035FE208800B170BD8D
:10369000204602F070F9208800B1F8E7204602F0D9
:1036A00096F9208800B1F2E7204602F0DDFF20887D
:1036B00000B1ECE7204603F089FC208800B1E6E782
:1036C000204604F09FF8208800B1E0E7204606F08D
:1036D00073F9208800B1DAE7204601F090FF2088D6
:1036E00000B1D4E72046FFF753FF208800B1CEE7B2
:1036F000204606F0B8FA208800B1C8E7204604F05A
:103700003AFB208800B1C2E7204607F014FA20886F
:1037100000B1BCE700F016FEFFF79EFE00BFB6E763
:1037200098480078012800D0704795480078FA281A
:1037300000DBF9E792480078401C9149087000BF0F
:10374000F2E710B500248F480078012800D010BDA2
:1037500000BFFEF7B5FA044600BF8948007828B9D3
:1037600000BF2046FEF7B0FA00BFF0E784480078BB
:10377000401E8349087008460078002805DD00BF18
:103780002046FEF7A1FA00BFE1E77F480078002855
:1037900005DD00BF2046FEF797FA00BFD7E702F02D
:1037A00085FF7D4908700846007800EB40007349AA
:1037B00051F8200076490860084600687349096896
:1037C000884205D100BF2046FEF77EFA00BFBEE763
:1037D0006F480068D0F89000401C6D490968C1F836
:1037E00090007F480068401C7D49086007F056FD46
:1037F00000BF2046FEF768FA00BF00BFA7E710B57C
:1038000000245F480078002800DD10BD5E48007885
:10381000002800DDF9E700BFFEF752FA044600BFBA
:1038200002F044FF5C4908700846007800EB400055
:10383000524951F82000564908600846006853492B
:103840000968884205D100BF2046FEF73DFA00BF57
:10385000DBE74F480068D0F89000401C4C490968ED
:10386000C1F890005E480068401C5D49086007F0A0
:1038700010FD00BF2046FEF727FA00BF00BFC4E7D7
:1038800010B541480078012803D1FEF79AF8444961
:10389000086010BD70B5044600253948007800283E
:1038A00003DD46F66250208070BD3648007801285E
:1038B00003D045F689602080F6E733480078FA287F
:1038C00003DB45F209202080EEE700BF00BFFEF7D2
:1038D000F7F9054600BF00BF2B480078401C2A4975
:1038E0000870FFF7CDFF00BF00BF2846FEF7ECF9D8
:1038F00000BF00BF0020208000BFD5E710B52248E0
:10390000007880B9FEF75DF825490968441A254812
:103910000068A04201D22348046023480068A04206
:1039200001D22148046010BD70B50446002514483A
:103930000078002803DD46F66550208070BD1148F0
:10394000007801284ED045F689602080F6E7000017
:1039500064000020C8000020C8B40008C4B40008F7
:10396000C0B4000875432F4F532D4949492049647D
:103970006C65205461736B00501D0020E41E002014
:103980006800002069000020B0000020080100202D
:103990000C010020960000209700002098000020D5
:1039A000A4000020A8000020AC000020B8000020E7
:1039B00020B50008B4000020F0B40008ECB4000802
:1039C000480000204C00002050000020540000203F
:1039D000580000205C00002060000020E60000206D
:1039E000DC000020F948007818B946F664502080C1
:1039F000A4E700BF00BFFEF763F9054600BF00BFA4
:103A0000F2480078401EF149087008460078002806
:103A10000ADD00BF00BF2846FEF756F900BF00BF11
:103A200046F66350208089E7FFF768FF00BF00BFBC
:103A30002846FEF749F900BF00BFFFF7E0FE00206F
:103A4000208000BF7AE72DE9F04105460C46164676
:103A5000002700BF00BFFEF733F9074600BF00BFD5
:103A6000012D03D00020DA49087002E00120D84976
:103A7000087014B1D748046006E0D74800680A21EE
:103A8000B0FBF1F0D349086000BF00BF3846FEF735
:103A90001BF900BF00BF00203080BDE8F08110B5E9
:103AA00001460C8924B1012C03D0022C0CD101E079
:103AB00000BF14E008684A6802610024C460146111
:103AC000D0600A6048600AE008684A68C368002459
:103AD0001C61C4600261D0600B60486000BF00BF21
:103AE00010BD2DE9F04104460027BC4800780028AD
:103AF00004DD48F2D1402080BDE8F081B348007871
:103B0000002803DD46F663502080F5E7B0480078D2
:103B1000012803D046F67B102080EDE700BF00BFF0
:103B2000FEF7CEF8074600BF00BFAD48007800EBB7
:103B30004000AC4901EB8006308902280ADA00BF58
:103B400000BF3846FEF7C0F800BF00BF46F67A1047
:103B50002080D1E73046FFF7A2FF3568686D18B9BD
:103B60009C480068A86501E0686DA86500BF00BFBB
:103B70003846FEF7A9F800BF00BFFFF740FE00205F
:103B8000208000BFB8E710B5044697480078E8B930
:103B900002F08CFD9549087008460078904908703D
:103BA0009248007800EB40008E4951F8200090497F
:103BB0000860084600688F49086001208A4908703B
:103BC00007F056FB43F69920208002E045F68A6014
:103BD000208010BD01460020088047F25C607047DD
:103BE00030B548B14568C1F8C05000F108042268FA
:103BF00093681D6AC56113E091F83450022D02D01C
:103C0000072D08D103E07CA5C1F8C05007E07CA5D2
:103C1000C1F8C05003E07DA5C1F8C05000BF00BF8F
:103C200030BDF0B58E6896F8375007893FB9012747
:103C3000078100274F600F600160416023E0078922
:103C40007F1C0781026806E0946894F83770AF42E1
:103C500000DD02E05268002AF6D100BF32B9002729
:103C60004F6043680B60596041600CE017682FB9E2
:103C7000116000270F604A60016004E013680B6068
:103C80004A6059601160F0BD10B5C287016300231E
:103C90000AE000244C600C600C614C610C83CC6128
:103CA000886020315C1CA3B29342F2DB10BD2DE989
:103CB000F041054695F8370000EB4000494901EB1B
:103CC00080042F69EE6887B946B900202081206002
:103CD000606095F8370002F00BFD0EE02089401E71
:103CE000208100203061266007E02089401E20816D
:103CF000FE600EB9676000E0376100202861E8606F
:103D0000BDE8F08138B504460D4685B16B46022208
:103D10002946204605F0E8FFBDF8000018B9032049
:103D200084F8360006E0022084F8360002E0022023
:103D300084F836002046FFF7BAFF38BD2DE9F04180
:103D400005460C4616461F462A48006880F834602F
:103D500000202849096881F835003946254800685F
:103D6000FFF7D0FF6CB104F10808EC60012229468E
:103D700020480068FFF788FF29464046FFF751FFBB
:103D800006E000201B490968C8871A4909680863CA
:103D9000184801682046FFF723FFBDE8F08110B501
:103DA0000489012C03D100240460446034E00C68D1
:103DB00024B94A680024146002602DE04C6824B9DC
:103DC0000B6800245C60436026E021E0B000002026
:103DD000B8000020B400002020B5000868000020D2
:103DE00096000020E41E00206900002097000020BB
:103DF0000C010020080100205461736B2051000069
:103E00005461736B2053656D0000000020000000BA
:103E10000B684A685A6013600489641E0481002498
:103E20004C600C6010BD2DE9F0410446256BE68F17
:103E30000AE0D5F80C8008F1080729463846FFF754
:103E4000AEFF2035701E86B2002EF2DC0020E08727
:103E50002063BDE8F08130B50346086BCC8F08E0E5
:103E6000C5689D4202D10361C26104E02030651E35
:103E7000ACB2002CF4DC00BF30BD10B590F8373088
:103E800003EB4303F94C04EB83010B893BB901239A
:103E90000B810023C36003610860486009E00B895F
:103EA0005B1C0B810B68C360002303610A6810610F
:103EB000086010BD10B590F8373003EB4303EB4CAE
:103EC00004EB83010B893BB901230B810023C36001
:103ED00003610860486008E00B895B1C0B810023CC
:103EE000C3604A680261D060486010BD10B50446E6
:103EF00094F8370002F0ECFB94F83700DC490978BD
:103F0000884203D12046FFF7D5FF02E02046FFF7A5
:103F1000B4FF10BD10B50446204605F075FD94F8B9
:103F2000360000F0040010B92046FFF7DFFF10BD97
:103F300070B505460C46164694F83600082847D258
:103F4000DFE800F0040508090607272800BF00BFC6
:103F500000BF3EE000BF94F83400032804D132468D
:103F600021462846FFF777FF0020E065A4F86000AF
:103F7000266415B12046FFF756FF2046FFF7CAFF1B
:103F800000203434A07001206070002004F834094F
:103F90001FE000BF94F83400032804D132462146C4
:103FA0002846FFF758FF0020E065A4F8600026646B
:103FB00015B12046FFF737FF204605F025FD042008
:103FC0003434A07001206070002004F8340900E04F
:103FD00000BF00BF70BD30B5AFF2D015C1F8C05002
:103FE00000F1080422681AB193681D6AC56102E0F5
:103FF000AFF2E815C56130BD2DE9F04304460F4628
:1040000084F83770256BB4F83E8013E0D5F80C9037
:1040100009F108063089012807D929463046FFF7FB
:10402000BEFE29463046FFF7FCFD2035A8F1010011
:104030001FFA80F8B8F1000FE8D1BDE8F083002145
:10404000016041600181704703895B1C0381036843
:104050004B6000230B60026802B1116001600389AC
:10406000012B00D14160704730B50346086BCC8FFF
:1040700008E0C5689D4202D10361C26104E02030BE
:10408000651EACB2002CF4DC00BF30BD70B5064636
:104090000C46154694F83600082845D2DFE800F0B3
:1040A000040508090607262700BF00BF00BF3CE043
:1040B00000BF94F83400032804D12A462146304634
:1040C000FFF7D2FF0020E065A4F8600025642046D9
:1040D000FFF7A9FE2046FFF71DFF00203434A07033
:1040E00002206070002004F834091EE000BF94F83C
:1040F0003400032804D12A4621463046FFF7B4FF96
:104100000020E065A4F860002564204605F07CFCF2
:104110002046FFF788FE04203434A070022060702F
:10412000002004F8340900E000BF00BF70BDF0B506
:104130000446059E086BCD8F0AE0C768A74204D1EC
:10414000046142610383C66104E020306F1EBDB28A
:10415000002DF2DC00BFF0BD2DE9F84306460C4609
:1041600017469846089D94F83600082850D2DFE894
:1041700000F00405080906072B2C00BF00BF00BF94
:1041800047E000BF94F83400032807D143463A467D
:10419000214630460095FFF7CAFF03E0E765A4F823
:1041A0006080256436B12046FFF73DFE214630464B
:1041B000FFF711FF2046FFF7ADFE00203434A0705A
:1041C000607004F8340924E000BF94F83400032838
:1041D00007D143463A46214630460095FFF7A7FFF0
:1041E00003E0E765A4F860802564204605F00CFC38
:1041F00036B12046FFF717FE21463046FFF7EBFEAB
:1042000004203434A0700020607004F8340900E009
:1042100000BF00BFBDE8F88310B5002400BFFDF764
:104220004FFD044600BF0020124908701248134990
:10423000086008460068D0F89000401C0968C1F882
:1042400090000F480068401C0D49086007F021F8F5
:1042500000BF2046FDF738FD00BF10BD70B5054614
:1042600000260848007801280ED070BDE41E00200A
:104270009600002097000020141E00200C01002052
:10428000DC000020B800002000BF00BFFDF718FDD3
:10429000064600BF00BF2C683CB900BF00BF3046D7
:1042A000FDF712FD00BF00BFDFE72348844207D1BE
:1042B00000BF00BF3046FDF707FD00BF00BFD4E7D9
:1042C000A06D10B1A06D401EA065A06D38B100BFFB
:1042D00000BF3046FDF7F8FC00BF00BFC5E72889E6
:1042E000022807DA00BF00BF3046FDF7EDFC00BF33
:1042F00000BFBAE711480078002807DD00BF00BF03
:104300003046FDF7E1FC00BF00BFAEE72846FFF7EF
:10431000C6FB2C68606D18B909480068A06501E00B
:10432000606DA06500BF00BF3046FDF7CDFC00BF4B
:1043300000BF00BF99E70000501D0020B000002022
:10434000B400002024482548254826482648274808
:10435000274828482848294829482A482A482B48D5
:104360002B482C482C482D482D482E482E482F48A5
:104370002F48304830483148314832483248334875
:104380003348344834483548354836483648374845
:10439000374838483848394839483A483A483B4815
:1043A0003B483C483C483D483D483E483E483F48E5
:1043B0003F484048404841484148424842484348B5
:1043C0004348444844484548454846484648474885
:1043D000474800BF7047000064B50008CCB600082D
:1043E00066B5000867B5000868B500086CB5000838
:1043F00070B500086DB5000898B5000899B50008BB
:104400009AB500089CB500089EB50008A0B5000844
:10441000A2B50008A4B50008C4B50008C6B50008D8
:10442000C8B50008CAB50008CCB50008CEB500086C
:10443000D0B50008FCB50008FDB50008FEB50008C1
:1044400000B6000802B6000803B6000804B600086B
:1044500006B6000808B600080AB600080CB6000840
:104460000EB6000810B6000840B6000841B60008B5
:1044700042B6000843B6000844B6000846B6000835
:1044800048B6000870B6000871B6000872B6000899
:1044900073B6000874B6000876B6000878B600084F
:1044A0007CB600087DB600087EB600087FB600081E
:1044B00080B6000881B6000882B6000883B60008FE
:1044C00084B6000886B6000887B6000888B60008DB
:1044D0008AB600088CB600088DB6000890B60008B1
:1044E000C4B60008C5B60008C6B60008C8B60008BD
:1044F000CAB60008F7A1C16100214161F649096807
:1045000011B90021816105E0F34909688161F2492F
:1045100009684861F049086070472DE9F041044698
:104520000E4617461D464FF00008EC48007800285C
:1045300004DD42F6E1602880BDE8F0811CB945F653
:10454000C3502880F8E700BF00BF00BFFDF7B8FBED
:10455000804600BF00BFE2480078401CE049087078
:1045600000BF00BF4046FDF7AFFB00BF00BF00BF6C
:10457000DC482060666027620020606204F1080069
:10458000FFF75DFD2046FFF7B5FFD7480088401CC8
:10459000D549088000BF00BF00BFFDF791FB8046F2
:1045A00000BF00BFCE480078401ECD49087000BF54
:1045B00000BF4046FDF788FB00BF00BF00BF0020E2
:1045C000288000BFB8E770B50446C8482060C8A07E
:1045D00060600020206204F108052846FFF72FFDE7
:1045E00070BD426981693AB9BB4B196009B10023BA
:1045F0004B610023836109E019B900239361436192
:1046000004E091614A6100238361436170472DE9B1
:10461000FC5F05468846144600200090AF480078AD
:10462000002805DD43F2C92020800020BDE8FC9F62
:1046300025B945F6C35020800020F7E7B8F1000FF8
:1046400003D0B8F1010F02D100E000BF04E045F64D
:10465000256020800020E9E700BFA2492868884241
:1046600004D045F6C45020800020DFE700BF00BF23
:1046700000BFFDF725FB009000BF00BF9848007801
:10468000401C9749087000BF00BF0098FDF71CFB55
:1046900000BF00BF00BF05F10809B9F80860374640
:1046A000B8F1000F03D0B8F1010F6ED16EE07FBBFF
:1046B0002846FFF796FF8C480088401E8A490880EC
:1046C0002846FFF780FF00BF00BF00BFFDF7F8FAE4
:1046D000009000BF00BF82480078401E80490870EB
:1046E00008460078A8B984480088002809DD00BF82
:1046F00000BF0098FDF7E8FA00BF00BFFFF78CFD90
:104700000EE000BF00BF0098FDF7DEFA00BF07E033
:104710000AE000BF00BF0098FDF7D6FA00BF00BF57
:1047200000BF002020802FE000BF00BF00BFFDF7CA
:10473000C7FA009000BF00BF69480078401E684972
:10474000087008460078A0B96B480088002809DD89
:1047500000BF00BF0098FDF7B7FA00BF00BFFFF72A
:104760005BFD0DE000BF00BF0098FDF7ADFA00BF94
:1047700006E000BF00BF0098FDF7A6FA00BF00BF2B
:1047800000BF47F25F10208067E035E0FDF719F9C0
:1047900001900AE0D9F800A0DAF808B05946284696
:1047A000019AFFF773FC701E86B2002EF2D12846E4
:1047B000FFF717FF4C480088401E4B4908802846E9
:1047C000FFF701FF00BF00BF00BFFDF779FA0090BF
:1047D00000BF00BF42480078401E4149087000BF3A
:1047E00000BF0098FDF770FA00BF00BF00BFFFF7E1
:1047F00006F80020208030E000BF00BF00BFFDF7BA
:104800005FFA009000BF00BF35480078401E344971
:10481000087008460078A0B937480088002809DDEC
:1048200000BF00BF0098FDF74FFA00BF00BFFFF7C1
:10483000F3FC0DE000BF00BF0098FDF745FA00BF94
:1048400006E000BF00BF0098FDF73EFA00BF00BFC2
:1048500000BF45F62560208000BF00BF3846E5E672
:104860002DE9F04106460F4614461D46DDF8188036
:1048700022480068C0F8804020480068A0F88850AE
:1048800000201E490968C1F88400434601223946C8
:104890003046FFF753FABDE8F0812DE9F04F8BB0B9
:1048A0000446884693469946DDE914750020019038
:1048B0000A480078002806DD46F2AE102880002065
:1048C0000BB0BDE8F08FDCB945F6C350288000205E
:1048D000F6E70000200000008000002068000020B3
:1048E000B0000020464C4147840000204E4F4E450A
:1048F0003F464C41470000007400002008010020A2
:1049000048F20101A9EB0100894536D01ADC40F2DA
:104910000111A9EB010089452BD00CDCB9F1010F85
:1049200023D0B9F1020F21D0B9F1040F1FD0B9F192
:10493000080F2AD11CE001281CD003281BD007280F
:1049400023D119E0B0F5807F1BD006DC012815D0FB
:10495000032814D0072818D112E0A0F2011088B162
:10496000022810D0062810D10EE000BF00BF00BF03
:1049700000BF00BF00BF00BF00BF00BF00BF00BF3F
:1049800000BF00BF00BF00BF04E045F625602880DF
:10499000002095E700BFF9492068884204D045F619
:1049A000C450288000208BE709F4807010B14FF0CC
:1049B000010A01E04FF0000A0FB10020386009F051
:1049C0000F000A9000BF00BFFDF77AF9019000BF09
:1049D00000BF0A9801286ED002286DD0042802D0AA
:1049E00008286AD16AE0206A00EA0806464517D11D
:1049F000BAF1010F02D1206AB0432062E04800689A
:104A0000C0F884600FB1606A386000BF00BF0198D1
:104A1000FDF75AF900BF00BF0020288030464FE75D
:104A200009F4004058B100BF00BF0198FDF74CF9F0
:104A300000BF00BF46F2B0102880002040E7D148F8
:104A4000007800280BDD00BF00BF0198FDF73CF99E
:104A500000BF00BF46F663502880002030E700BF4B
:104A6000C8480078401CC749087000BF00BF0198C3
:104A7000FDF72AF900BF00BF00BF4B464246214662
:104A800002A8CDF800B0FFF7EBFE00BF00BF00BFEB
:104A9000FDF716F9019000BF00BFBA480078401E2C
:104AA000B849087000BF00BF0198FDF70DF900BFBD
:104AB00000BF00BF44E168E0CFE035E1206A00EAD2
:104AC0000806BEB1BAF1010F02D1206AB0432062DC
:104AD000AB480068C0F884600FB1606A386000BFFE
:104AE00000BF0198FDF7F0F800BF00BF002028804C
:104AF0003046E5E609F4004058B100BF00BF019818
:104B0000FDF7E2F800BF00BF46F2B0102880002099
:104B1000D6E69C48007800280BDD00BF00BF019856
:104B2000FDF7D2F800BF00BF46F663502880002092
:104B3000C6E600BF93480078401C9249087000BF49
:104B400000BF0198FDF7C0F800BF00BF00BF4B4693
:104B50004246214602A8CDF800B0FFF781FE00BF13
:104B600000BF00BFFDF7ACF8019000BF00BF854853
:104B70000078401E8349087000BF00BF0198FDF710
:104B8000A3F800BF00BF00BFDAE0206A28EA0006F1
:104B9000464517D1BAF1010F02D1206A3043206295
:104BA00077480068C0F884600FB1606A386000BF61
:104BB00000BF0198FDF788F800BF00BF00202880E3
:104BC00030467DE609F4004058B100BF00BF0198AF
:104BD000FDF77AF800BF00BF46F2B0102880002031
:104BE0006EE66848007800280BDD00BF00BF019822
:104BF000FDF76AF800BF00BF46F66350288000202A
:104C00005EE600BF5F480078401C5E49087000BF48
:104C100000BF0198FDF758F800BF00BF00BF4B462A
:104C20004246214602A8CDF800B0FFF719FE00BFAA
:104C300000BF00BFFDF744F8019000BF00BF51481E
:104C40000078401E4F49087000BF00BF0198FDF773
:104C50003BF800BF00BF00BF72E0206A28EA0006F0
:104C6000BEB1BAF1010F02D1206A3043206244483C
:104C70000068C0F884600FB1606A386000BF00BF90
:104C80000198FDF721F800BF00BF002028803046C2
:104C900016E609F4004058B100BF00BF0198FDF7C7
:104CA00013F800BF00BF46F2B0102880002007E6CE
:104CB0003448007800280BDD00BF00BF0198FDF7E5
:104CC00003F800BF00BF46F6635028800020F7E5D8
:104CD00000BF2C480078401C2A49087000BF00BF64
:104CE0000198FCF7F1FF00BF00BF00BF4B464246F2
:104CF000214602A8CDF800B0FFF7B2FD00BF00BF0B
:104D000000BFFCF7DDFF019000BF00BF1D48007829
:104D1000401E1C49087000BF00BF0198FCF7D4FF7B
:104D200000BF00BF00BF0BE000BF00BF0198FCF751
:104D3000CBFF00BF00BF45F6256028800020BFE5FF
:104D400000BFFEF75CFD00BF00BFFCF7B9FF01909C
:104D500000BF00BF0A48006890F8350030B1012854
:104D600012D0022830D003283FD11EE01FB10448E2
:104D70000068006C38600020288042E0464C4147C3
:104D800008010020B00000201FB1FC480068006C42
:104D9000386000BF00BF0198FCF796FF00BF00BF5E
:104DA00046F2A910288000208AE50FB10020386063
:104DB00000BF00BF0198FCF787FF00BF00BF47F2AC
:104DC000D920288000207BE51FB1EC480068006CEA
:104DD000386000BF00BF0198FCF776FF00BF00BF3E
:104DE00045F6C250288000206AE500BF00BF019848
:104DF000FCF76AFF00BF00BF46F62E602880002047
:104E00005EE500BFDD480068D0F88460BAF1010FAC
:104E100020D10A9801280BD002280AD0042802D0F9
:104E200008280AD100E000BF206AB043206210E0E9
:104E300000BF206A304320620BE000BF00BF019832
:104E4000FCF742FF00BF00BF45F625602880002028
:104E500036E500BF00BF00BF0198FCF735FF00BF7B
:104E600000BF0020288030462AE52DE9F05F054686
:104E70000E4614464FF0000AC1480078002805DDB0
:104E800046F2AA1020800020BDE8F09F25B945F623
:104E9000C35020800020F7E74EB1B6F5807F07D0E1
:104EA000B6F5004F05D0B6F5014F04D102E000BFC2
:104EB00000BF00BF04E045F6256020800020E3E746
:104EC00000BFB0492868884204D045F6C45020800D
:104ED0000020D9E700BF00BFFCF7F2FE824600BF0A
:104EE00000BF05F10807388958B900BF00BF504618
:104EF000FCF7EAFE00BF00BF46F2AB1020800020A6
:104F0000C2E700BFA0480078401C9F49087000BF5E
:104F100000BF5046FCF7D8FE00BF00BF00BF4FF0F7
:104F20000008FCF74EFD83460FE03868D0F8089083
:104F30005A4649462846FEF7FBFF08F101001FFAD2
:104F400080F8B6F5807F00D002E038890028ECDCDC
:104F500000BF00BF00BF00BFFCF7B2FE824600BF2B
:104F600000BF89480078401E8749087000BF00BF15
:104F70005046FCF7A9FE00BF00BF00BF06F400408A
:104F800008B9FEF73CFC0020208040467CE770B565
:104F9000044600267A480078002804DD46F2AE1068
:104FA0002080002070BD00BF00BFFCF789FE0646D0
:104FB00000BF00BF71480068D0F8845000BF00BF38
:104FC0003046FCF781FE00BF00BF0020208028464D
:104FD000E8E770B504460E461546343426650020D1
:104FE00060702070E560A078343C082816D2DFE8B5
:104FF00000F0040508090706101100BF00BF00BF3C
:105000000DE000BF2046FEF785FF002084F8360043
:1050100005E000BF042084F8360000E000BF00BFB8
:105020002046FEF700FF70BD2DE9F04F85B0044625
:10503000894692469B46DDF838800020009000BFEC
:1050400000BFFCF73DFE009000BF00BFBAF1000FAB
:105050000AD0BAF1010F0DD0BAF5004F05D06FF4A8
:105060000040504460B906E000BF206A40EA0900F1
:10507000206214E000BF206A20EA090020620EE0EE
:1050800000BF00BF0098FCF71FFE00BF00BF45F641
:105090002560A8F80000002005B0BDE8F08F00BF33
:1050A000C4F824B004F1080001900198008958B9AF
:1050B00000BF00BF0098FCF707FE00BF00BF002044
:1050C000A8F80000206AE7E700BF2F480078401CDE
:1050D0002D49087000BF00BF0098FCF7F5FD00BF28
:1050E00000BF00BF01980768BD6888E0786802903B
:1050F00095F8880000F00F0003900398012821D054
:1051000002282ED0042802D008283FD10EE0206AC1
:10511000D5F8801000EA0106D5F88000B04204D12D
:105120005A4631462846FFF754FF62E0206AD5F818
:10513000801000EA010626B15A4631462846FFF79C
:1051400048FF56E0D5F88000216A20EA0106D5F82C
:105150008000B04204D15A4631462846FFF739FF55
:1051600047E0D5F88000216A20EA010626B15A46B8
:1051700031462846FFF72DFF3BE0000008010020E4
:1051800068000020464C4147B000002000BF00BF2F
:1051900000BFFCF795FD009000BF00BF59480078A4
:1051A000401E5849087008460078A0B95648008843
:1051B000002809DD00BF00BF0098FCF785FD00BF97
:1051C00000BFFFF729F80DE000BF00BF0098FCF713
:1051D0007BFD00BF06E000BF00BF0098FCF774FD38
:1051E00000BF00BF00BF43F6FF20A8F8000000206A
:1051F00052E700BF029F0FB1BD6800E00025002DFF
:105200007FF474AF00BF00BF00BFFCF759FD0090F2
:1052100000BF00BF3B480078401E3A49087000BFFD
:1052200000BF0098FCF750FD00BF00BF00BF0AF4AC
:10523000004008B9FEF7E3FA00BF00BFFCF740FDED
:10524000009000BF00BF206A049000BF00BF00981C
:10525000FCF73AFD00BF00BF0020A8F8000004984A
:105260001AE72DE9FF470546884617461C4635B91B
:1052700045F6C3502080002004B0BDE8F0874FB150
:10528000012F08D0B7F5004F06D06FF40040384426
:1052900020B902E000BF00BF00BF04E045F6256072
:1052A00020800020E8E700BF18492868884204D021
:1052B00045F6C45020800020DEE7FCF782FB06465E
:1052C0001348007800280BDD00231A4629460F48B2
:1052D000CDE90087CDE9026400F020F80020CBE79B
:1052E00033463A46414628460094FFF79DFE8146E4
:1052F0004846C1E70021074A1160074A1180018032
:1053000070470000B000002074000020464C414768
:105310006800002080000020840000202DE9F84F64
:1053200004460D4616461F46DDE90BABDDF8289016
:10533000DDF834800020009000BF00BFFCF7C0FC07
:10534000009000BF00BFE2480088E2490988884217
:105350003EDADF480088401CDD490880DE480088CE
:105360000988884203DADA480088DB490880DB488C
:1053700000680460D94800688560D8480068C66045
:10538000D64800680782D5480068C0F81490D34812
:105390000068A0F818A0D1480068C0F81CB0CF4839
:1053A00000684068CD4908600120CD490881CD489A
:1053B00008604860002001F08BF9CB48007818B1F4
:1053C000C9480078C94908700020A8F8000008E022
:1053D000C7480088401CC649088044F25360A8F8BA
:1053E000000000BF00BF0098FCF76EFC00BF00BFCC
:1053F000BDE8F88F3EB5BF4800680068BE4A811A14
:10540000904279D00FDCBD49084400283ED0BC4909
:105410000844A8B1BB490844002860D0BA490844F0
:1054200000286AD13FE0B9480844002850D0B84964
:105430000844002862D0B74908440028F1D110E0A0
:1054400002A8AC4D00902D68EB69AA4D2D682A8BFF
:10545000A84D2D686969A74D2D68A868FFF7E4FD80
:105460007AE002A9A3480068C069A24DCDE9000115
:105470002D682B8B9F4D2D682A8A9E4D2D68E968DB
:105480009C4D2D68A86801F09CFC65E0994B1B6859
:10549000DA69984B1B68198B964B1B68986802ABAE
:1054A00002F074F858E002A992480068C069914D72
:1054B000CDE900012D682B8B8E4D2D682A8A8D4DEC
:1054C0002D68E9688B4D2D68A86803F026FA43E043
:1054D00088490968886802A903F0D7FB3CE0854B3E
:1054E0001B68DA69834B1B68198B824B1B689868B1
:1054F00002AB03F039FE2FE007E02CE07D4909689C
:10550000886802A904F05DF926E07849097801EB82
:105510004101734A02EB8100FEF7A0FE7548006866
:1055200002AB0021C2697C4803F01EFE7B48006884
:10553000401E7A4908600846006858B978480068F3
:105540000860FCF73EFA044602AB2246002175488B
:1055500003F00AFE00E000BF00BF3EBD002700BF11
:105560004CE0002648E000BF00BFFCF7A9FB07465F
:1055700000BF00BF5648008888B9002058490881FC
:105580000860486001F0B4F800BF00BF3846FCF77F
:105590009BFB00BF00BFFEF732F901262CE000BFE5
:1055A00000BF3846FCF790FB00BF00BFFCF709FACC
:1055B0000546FFF71FFFFCF704FA441B5A48006832
:1055C000A04201D25848046000BF00BFFCF778FB3E
:1055D000074600BF00BF474800684068454908606B
:1055E0003B480088401E3A49088000BF00BF38464B
:1055F000FCF76AFB00BF00BF002EB4D0B1E7F0B5E6
:1056000089B0054600203A4908804848006820B91A
:1056100044F25260288009B0F0BD2E48008802286C
:1056200003DA44F254602880F5E700203E49086020
:105630003E4804682646203600270CE03C4820609F
:105640000020A060E06020826061208366602034DA
:105650002036781C87B21F4800888742EEDB203C4A
:105660003248066866601D480660224806600020D1
:1056700017490880184908802E48006818B944F274
:1056800055602880C7E72C4800682C490968884283
:1056900003D244F256602880BDE703200021059123
:1056A000CDE90705069124480068254A1268214B78
:1056B0001B68CDE90301CDE9013200910B46AFF241
:1056C000631220A1074802F007FD00BFA3E7000016
:1056D00074000020D4B40008760000206C00002084
:1056E000E41E0020141E00209600002098000020D8
:1056F00078000020700000205449434BADBAB2BE80
:105700000DF90BFAF2F8F7FF0006F6FF00F7FDF7C8
:1057100000FFEFFF03FE0FFEA8220020040100207F
:10572000000100206C2300207C000020D0B4000881
:105730004E4F4E45DCB40008E4B400081CB5000828
:10574000E0B4000875432F4F532D49494920495370
:1057500052205175657565205461736B000000001F
:10576000002181618749096811B90021C16105E003
:1057700084490968C1618349096888618149086071
:1057800070472DE9FF4F83B0044615461F46DDE9FB
:105790001096002000907C480078002805DD45F236
:1057A000B960308007B0BDE8F08F1DB945F2BB602D
:1057B0003080F7E7022F03DA45F2BC603080F1E772
:1057C000B9F1040F03D245F2C1603080EAE74FF02F
:1057D000030ABAF1000F0DD005EA0A0018B145F22C
:1057E000BB603080DEE709EA0A0018B145F2C1600B
:1057F0003080D7E7AB46A846781E80B201900020E3
:10580000029007E0C844CBF80080C3460298401CD1
:1058100080B20290DDE901108842F3DB0020CBF872
:10582000000000BF00BF00BFFCF74AFA009000BFB5
:1058300000BF56480078401C5449087000BF00BFA4
:105840000098FCF741FA00BF00BF00BF504820603D
:105850000498A0606560E560A7826782A4F8109054
:105860002046FFF77DFF4B480088401C49490880CF
:1058700000BF00BF00BFFCF723FA009000BF00BFCD
:1058800042480078401E4149087000BF00BF0098A0
:10589000FCF71AFA00BF00BF00BF0020308000BF35
:1058A00080E72DE9F04104460D4600272CB945F26A
:1058B000BF6028800020BDE8F08100BF00BFFCF77A
:1058C000FFF9074600BF00BFA08A58B900BF00BF5C
:1058D0003846FCF7F9F900BF00BF45F2C2602880E6
:1058E0000020E8E7E6683068E060A08A401EA082F9
:1058F00000BF00BF3846FCF7E7F900BF00BF00203B
:1059000028803046D7E72DE9F04104460E4615467B
:10591000002724B945F2BF602880BDE8F0811EB998
:1059200045F2BE602880F8E700BF00BFFCF7C8F969
:10593000074600BF00BFA08A618A88420ADB00BF19
:1059400000BF3846FCF7C0F900BF00BF45F2BA609F
:105950002880E2E7E0683060E660A08A401CA08210
:1059600000BF00BF3846FCF7AFF900BF00BF002002
:10597000288000BFD1E70021024A1160054A11804A
:10598000018070478800002068000020B0000020DF
:105990004D454D208C00002070B502460B46104648
:1059A000114610315E1EB5B2002408E001600026E9
:1059B00046600681C66010301031661CB4B2AC423D
:1059C000F4DB0026066046600681C66070BD10B537
:1059D00004467948006818B945F21E70208010BD51
:1059E0007648008818B945F21D702080F7E77348A3
:1059F000018871480068FFF7CFFF6F480068704961
:105A000008606E48008888800020C8800881208057
:105A100000BFE4E710B5014648894B89002B17DD2C
:105A20000A68674B1B681360654C4B68236023460C
:105A3000DB884C891B1B624CE38023469B884C8986
:105A400023445F4CA38000234B818B810B604B6010
:105A500010BD018100224281828102604260704754
:105A6000F0B504460D46608940B90020288002B197
:105A7000106046F2925018800020F0BD61684E68B8
:105A8000088928800AB1C86810600868606060688A
:105A900018B900202060608102E06089401E6081AA
:105AA000474800680860464801608088401C444FB1
:105AB000B8803846C088401EF880002018803046E4
:105AC000DBE72DE9F0410D46DDE90674B0F80AC0C8
:105AD000B0F80880C44505DB46F2935CA4F800C02A
